:020000040800F2
:10000000B00A0020CD260008A3020008A5020008BF
:10001000A9020008AD020008B102000800000000BB
:10002000000000000000000000000000B502000811
:10003000B702000800000000B9020008BB02000877
:10004000E7260008E7260008E7260008E72600085C
:10005000E7260008E7260008E7260008E72600084C
:10006000E7260008E7260008E7260008E72600083C
:10007000E7260008E7260008E7260008E72600082C
:10008000E7260008E7260008E7260008E72600081C
:10009000E7260008E7260008E7260008E72600080C
:1000A0003F090008E7260008E7260008E7260008C1
:1000B000E72600086D090008E7260008E726000883
:1000C000E7260008E7260008E7260008E7260008DC
:1000D000E7260008D1230008E7260008A12500082C
:1000E000E7260008E7260008E7260008E7260008BC
:1000F000E7260008E7260008E7260008E7260008AC
:10010000E7260008E7260008E7260008E72600089B
:10011000E7260008E7260008E7260008E72600088B
:10012000E7260008E7260008E7260008E72600087B
:10013000E7260008E7260008E7260008E72600086B
:10014000E7260008E7260008E7260008E72600085B
:10015000E7260008E7260008E7260008E72600084B
:10016000E7260008E7260008E7260008E72600083B
:10017000E7260008E7260008E7260008E72600082B
:10018000E7260008E726000800F002F800F058F81B
:100190000AA090E8000C82448344AAF10107DA45E2
:1001A00001D100F04DF8AFF2090EBAE80F0013F0DC
:1001B000010F18BFFB1A43F0010318474C760000EB
:1001C0006C760000103A24BF78C878C1FAD852077C
:1001D00024BF30C830C144BF04680C6070470000C1
:1001E0000023002400250026103A28BF78C1FBD840
:1001F000520728BF30C148BF0B607047662907F01F
:100200000E82642904F07A84632905F0388073290A
:1002100005F03D80002070471FB507F0F6F905F0A6
:10022000D5FA04000020002106F0DEFD401C6060CD
:100230000020002106F0C2FDE0601FBD10B510BD1A
:1002400005F08AFD1146FFF7E7FF00F008F805F01A
:10025000E3FF03B4FFF7F2FF03BC01F0F5FFA820B2
:1002600001F040FF4FF4FA7001F09EFF4FF4A060E0
:1002700002F04CFA4FF4E13002F002F84FF4E130B2
:1002800002F0E6F800F0EEF953214FF47A7000F036
:10029000D1F900F0F2FC01F079FC01E001F087F8FF
:1002A000FCE7704700BFFEE700BFFEE700BFFEE7C8
:1002B00000BFFEE770477047704770470CB50020DD
:1002C000019000907648006840F4803074490860DE
:1002D00000BF7348006800F4003000900198401C93
:1002E0000190009818B90198B0F5A04FF1D16C4871
:1002F000006800F4003010B10120009001E00020FF
:1003000000900098012846D165484030006840F0D0
:1003100080506349403108606248006840F44040C2
:10032000604908605E48083000685D49083108602F
:100330000846006840F4004008600846006840F441
:10034000A05008605848091F0860081F006840F066
:100350008070091F086000BF5148006800F00070FD
:100360000028F9D040F20570504908604C48083028
:10037000006820F003004A49083108600846006818
:1003800040F00200086000BF45480830006800F0F7
:100390000C000828F8D10CBD10B54548006840F4A1
:1003A0007000434908603E48006840F001003C4945
:1003B000086000203A4908310860394800683D4922
:1003C0000840374908603C48091D0860081F00685C
:1003D00020F48020091F0860002031490C3108609A
:1003E000FFF76CFF4FF0006031498039086010BDA5
:1003F00070B500200022022300240221284D083578
:100400002D6805F00C0020B1042806D0082834D14E
:1004100007E02A4D2A4E356033E02A4D284E3560DC
:100420002FE01F4D2D1D2D68C5F380541C4D2D1D33
:100430002D6805F03F0154B1224DB5FBF1F5184E82
:10044000361D3668C6F3881605FB06F209E01B4D1B
:10045000B5FBF1F5124E361D3668C6F3881605FB5E
:1004600006F20F4D2D1D2D68C5F301456D1C6B0067
:10047000B2FBF3F5124E356003E0104D104E3560BF
:1004800000BF00BF064D08352D68C5F303150E4E9D
:10049000705D0B4D2D68C540094E356070BD000084
:1004A000003802400070004008544007003C024001
:1004B00088ED00E0FFFFF6FE103000240024F40079
:1004C0000000002000127A00040000201CB5012169
:1004D000102003F02BFD01220821F94802F097FAC1
:1004E00001220921F64802F092FA01220A21F44879
:1004F00002F08DFA01220B21F14802F088FA012264
:100500000C21EF4802F083FA01220D21EC4802F0A1
:100510007EFA01220E21EA4802F079FA4FF4FE40F9
:10052000009002208DF8040000208DF806000220C3
:100530008DF805006946E24802F0DEF91CBD00B501
:1005400089B00121084603F04BFD4FF47A70079003
:100550005320ADF818000020ADF82000ADF81A00C7
:100560008DF8220006A9D74802F061FD7020ADF891
:1005700004000120ADF806000020ADF80800ADF839
:100580001000ADF812000A2003904FF48070ADF80F
:1005900014000020ADF8160001A9CA4802F0DCFDE5
:1005A0007020ADF804000120ADF806000020ADF881
:1005B0000800ADF81000ADF812000A2003904FF4C7
:1005C0008070ADF814000020ADF8160001A9BD48F8
:1005D00002F0FBFD7020ADF804000120ADF806002C
:1005E0000020ADF80800ADF81000ADF812000A20A8
:1005F00003904FF48070ADF814000020ADF81600A1
:1006000001A9B04802F02EFE0821AE4802F031FFE9
:100610000821AC4802F036FF0821AA4802F03FFF4B
:100620000121A84802F08CFD0121A64803F079F9C8
:1006300009B000BD3EB505460C460121102003F06F
:10064000BEFC0195ADF800400020ADF80800ADF803
:10065000020069469C4802F0EAFC01219A4802F037
:100660006FFD3EBD1CB50121022003F05FFC02229C
:100670000621964802F0CBF903220821934802F0A4
:10068000C6F94020009002208DF8040000208DF86B
:10069000060002208DF8050069468C4802F02CF90E
:1006A0004FF48070009002208DF8040000208DF837
:1006B000060002208DF805006946844802F01CF906
:1006C0001CBD10B588B004460121042003F077FC5E
:1006D000601E06905320ADF814000020ADF81C00F9
:1006E000ADF816008DF81E0005A9794802F09FFCB0
:1006F0007020ADF800000120ADF802000020ADF838
:100700000C000120C0EB540002906946704802F0D2
:1007100023FD08216E4802F0ACFE80216C4803F0F6
:10072000F1F920216A4803F0DBF90121684802F061
:10073000E9FC0121664802F003FD08B010BD1FB5B9
:1007400004460121022003F03AFC02940020ADF897
:100750000400ADF80C00ADF8060001A95D4802F0F8
:1007600066FC30215B4803F04EF95A480830008897
:1007700040F0070057490831088000220121554800
:1007800003F0F6F81D208DF8000000208DF8010020
:1007900003208DF8020001208DF80300684601F067
:1007A000BAFF01214B4802F0CBFC1FBD10B588B049
:1007B00004460121480403F002FC601E0690532009
:1007C000ADF814000020ADF81C00ADF816008DF84F
:1007D0001E0005A9404802F02AFC7020ADF8000078
:1007E0000120ADF802000020ADF80C000120C0EBA4
:1007F000540002906946384802F0AEFC08213648A1
:1008000002F037FE8021344803F07CF92021324881
:1008100003F066F90121304802F074FC01212E48F2
:1008200002F08EFC08B010BD1FB50446012108047B
:1008300003F0C5FB02940020ADF80400ADF80C00F5
:10084000ADF8060001A9254802F0F1FB202123485C
:1008500003F0D9F82148008940F007001F490881BA
:10086000002201211D4803F083F818208DF80000B4
:1008700000208DF801008DF8020001208DF80300A2
:10088000684601F048FF1FBD70B505460C4620467E
:10089000FFF7CAFF0121114802F052FC01210F4865
:1008A00003F08EF8012211460C4803F061F8284647
:1008B000FFF77CFF0121084803F033F870BD00000A
:1008C00000100240000001400010004000040240FF
:1008D0000008004000040040004401400040014086
:1008E00070B505460C462046FFF729FF0121424816
:1008F00002F026FC0121404803F062F80122114673
:100900003D4803F035F82846FFF7DBFE01213B4860
:1009100003F007F870BD70B506460C46154616B1D3
:10092000012E0AD104E029462046FFF7D9FF04E052
:1009300029462046FFF7A8FF00BF00BF70BD10B5D5
:1009400001212F4803F02BF878B101212C4803F046
:1009500037F800212B4802F0E4FF0021294802F07B
:10096000EFFB0021264802F0EBFB10BD10B5012182
:10097000214803F014F878B101211F4803F020F852
:1009800000211E4802F0CDFF00211C4802F0D8FBD8
:100990000021194802F0D4FB10BD70B504460D4685
:1009A0002146164802F033FD2946164802F02DFD77
:1009B00070BD2DE9F04104460F4615461E46012143
:1009C000204602F087FBE7620C48844200D1656351
:1009D0000C48844200D165630021204602F07AFB76
:1009E000012001F0E1FB012E03D10121204602F09C
:1009F000C8FFBDE8F081000000040040000800408E
:100A000000400140004401402DE9F04104460D46FC
:100A100026462F463946304600F06EFABDE8F08192
:100A200070B504460D462E4614B1012C16D10AE0CD
:100A30000821944801F0DCFF32464FF47A7100201F
:100A4000FFF769FF0AE080218E4801F0D1FF3246AE
:100A50004FF47A710120FFF75EFF00BF00BF3246FE
:100A60004FF47A712046FFF756FF70BD70B504460B
:100A70000D462E4614B1012C16D10AE008218148FA
:100A800001F0B8FF32464FF47A710020FFF743FFC0
:100A90000AE080217B4801F0ADFF32464FF47A71C5
:100AA0000120FFF738FF00BF00BF70BD2DE9F04106
:100AB0002DED068B0446B0EE408AF0EE608A0025EC
:100AC00000279FED710B53EC102B51EC180B06F027
:100AD000F7FB41EC1A0B9FED6E0B53EC102B06F05D
:100AE000EFFB41EC190B06F06FFBC5B2284605EB96
:100AF000D0714F108CB953EC182B9FED670B51EC54
:100B0000100B06F025FB07D10021654802F009FF14
:100B1000BDEC068BBDE8F081614E012C0ED153EC8B
:100B2000182B9FED5D0B51EC100B06F011FB04D15F
:100B300000215C4802F0F5FEEAE75A4E00233A46EF
:100B400029463046FFF735FF00BFE1E770B52DEDD0
:100B5000048B05460E46B0EE409AF0EE609AB0EE79
:100B6000418A9FED510A28EE000ABDEEC00A10EE40
:100B7000104A15B1012D0AD104E00121484802F0C4
:100B8000D0FE04E00121474802F0CBFE00BF00BFC9
:100B9000F1B22846FFF738FFB0EE490AF0EE690AD5
:100BA0002846FFF783FF14B9BDEC048B70BD002C01
:100BB00005DA644221462846FFF758FF03E0214644
:100BC0002846FFF72DFF00BFEEE770B52DED028B35
:100BD0000446B0EE408AF0EE608A14B1012C1CD1BC
:100BE0000DE00421274801F005FF51EC180B06F039
:100BF000EBFAC5B229462046FFF706FF0DE040217B
:100C0000204801F0F7FE51EC180B06F0DDFAC5B2F2
:100C100029462046FFF7F8FE00BF00BFBDEC028B5F
:100C200070BD70B52DED028B0446B0EE408AF0EE3B
:100C3000608A53EC182B9FED180B51EC100B06F04B
:100C400087FA0ED114B1012C0AD104E00021144816
:100C500002F067FE04E00021124802F062FE00BFCD
:100C600000BF51EC180B06F0AFFAC5B2294620467A
:100C7000FFF7CAFEBDEC028B70BD10B500F0C5F8E1
:100C800010BD0000000C02400000000000006940A0
:100C900000000000000040400000000000000000D4
:100CA00000080040004401400000C84510B504465B
:100CB000012001F031FA14B1012C0BD104E0102114
:100CC000B24801F095FE05E04FF40071B04801F024
:100CD0008FFE00BF00BF4FF47A7001F01DFA10BD07
:100CE00010B5044614B1012C1CD10DE04FF4007175
:100CF000A74801F07DFE4FF47A7001F00DFA102143
:100D0000A24801F077FE0DE01021A04801F070FE2E
:100D10004FF47A7001F000FA4FF400719C4801F032
:100D200069FE00BF00BF012001F0F6F910BD2DE9FA
:100D3000F04104460D4600260027402040EA4500C9
:100D4000C6B26CB90020FFF7CBFF304600F045FA81
:100D5000FF2000F042FA07460020FFF7A7FF0EE051
:100D6000012C0CD10120FFF7BBFF304600F035FA13
:100D7000FF2000F032FA07460120FFF797FF3846C0
:100D8000BDE8F0812DE9F04104460D4616460027E6
:100D9000B0466806070E64B90020FFF7A1FF384689
:100DA00000F01BFA404600F018FA0020FFF77EFF23
:100DB0000DE0012C0BD10120FFF792FF384600F027
:100DC0000CFA404600F009FA0120FFF76FFFBDE87A
:100DD000F0812DE9F04106460C46254605213046B6
:100DE000FFF7A5FF074607F0F00005432A46052157
:100DF0003046FFF7C7FF05213046FFF798FF05464D
:100E0000012001F089F9BDE8F0811CB501214C20D9
:100E100003F08CF88820009001208DF80400002059
:100E20008DF8060002208DF805006946574801F04C
:100E300063FD4FF44070009001208DF80400002005
:100E40008DF8060002208DF805006946514801F032
:100E500053FD2220009000208DF8040001208DF821
:100E600007006946494801F047FD542000900120E1
:100E70008DF804008DF8060002208DF80500694603
:100E8000424801F039FD4FF40070009001208DF8C8
:100E900004008DF8060002208DF8050069463C48E4
:100EA00001F02AFD00F035F9022001F07DF9102152
:100EB000364801F09DFD4FF40071354801F098FD72
:100EC0004FF47A7001F028F94FF40071314801F0C5
:100ED0008FFD012001F068F940212C4801F08AFDC6
:100EE000012001F061F907210020FFF772FF0721BF
:100EF0000120FFF76EFF1CBD2DE9F04106460C46B0
:100F000000272007050E03213046FFF710FF074694
:100F100007F00F0005432A4603213046FFF732FF52
:100F200003213046FFF703FF0546012001F0F4F8E6
:100F3000BDE8F08170B505460C4600212846FFF754
:100F4000DBFF4FF4C8724FF47A712846FFF7E3FCD9
:100F5000E04318B10A212846FFF7CEFF70BD2DE906
:100F6000F04106460C460027E007050E04213046F6
:100F7000FFF7DDFE074607F07F0005432A46042100
:100F80003046FFF7FFFEBDE8F0810000000C024094
:100F9000001802400008024018B90022CA800A81E5
:100FA00015E0012804D10022CA8001220A810EE046
:100FB000022804D10222CA8000220A8107E0032805
:100FC00004D10222CA8001220A8100E0704700BFDA
:100FD000FCE700B587B00121022002F0A7FF012144
:100FE000880302F0ECFF4FF46040059002208DF87A
:100FF000180000208DF81A0002208DF81900012039
:101000008DF81B0005A9AF4801F076FC05220D21E3
:10101000AC4801F0FCFC05220E21AA4801F0F7FCC7
:1010200005220F21A74801F0F2FC0121080303F07B
:101030002CF800214FF4805003F027F80021A2483B
:1010400003F0E2FB0020ADF800004FF48270ADF831
:1010500002000020ADF80400ADF806000120ADF854
:1010600008004002ADF80A002820ADF80C0000206E
:10107000ADF80E000720ADF810006946924803F065
:10108000C9FA0121904803F0BFFB07B000BD00B5CD
:1010900087B00121084602F049FF0121080302F050
:1010A0009FFFE020009002208DF8040000208DF8C2
:1010B000060002208DF805006946844801F01CFCFA
:1010C000E021824801F094FC0020ADF808004FF4C4
:1010D0008270ADF80A000020ADF80C00ADF80E00EB
:1010E000ADF810004FF40070ADF812001020ADF80C
:1010F00014000020ADF816000720ADF8180002A972
:10110000734803F087FA0121714803F07DFB07B0B3
:1011100000BD00B587B00121042002F007FF0121C6
:10112000C80302F04CFF4FF4E050059002208DF808
:10113000180000208DF81A0002208DF8190005A96A
:10114000644801F0D9FB06220A21624801F05FFCE5
:1011500006220B215F4801F05AFC06220C215D4853
:1011600001F055FC00215C4803F04EFB0020ADF877
:1011700000004FF48270ADF802000020ADF80400CA
:10118000ADF806000120ADF808004002ADF80A00F5
:101190002020ADF80C000020ADF80E000720ADF8BF
:1011A000100069464C4803F035FA01214A4803F023
:1011B0002BFB07B000BD10B50446434800884FF62E
:1011C000C7710840404908800846008820430880CD
:1011D00001213D4803F018FB10BD70B50546002401
:1011E00005E0601CC4B2C82C01DD002070BD0221E6
:1011F000394803F0D3FB0028F3D02946364803F0E2
:1012000084FB002405E0601CC4B2C82C01DD002072
:10121000ECE70121304803F0C1FB0028F3D02E4851
:1012200003F070FBC0B2E1E770B50546002405E0AD
:10123000601CC4B2C82C01DD002070BD0221224810
:1012400003F0ACFB0028F3D029461F4803F05DFBF8
:10125000002405E0601CC4B2C82C01DD0020ECE7CE
:101260000121194803F09AFB0028F3D0164803F037
:1012700049FBC0B2E1E770B50546002405E0601CFB
:10128000C4B2C82C01DD002070BD0221104803F05B
:1012900085FB0028F3D029460D4803F036FB0024D7
:1012A00005E0601CC4B2C82C01DD0020ECE7012180
:1012B000074803F073FB0028F3D0054803F022FB36
:1012C000C0B2E1E7000402400038004000000240E4
:1012D0000030014000080240003C00402DE9F0478A
:1012E00090B00746884616460024A24600259FED8A
:1012F000FE0B8DED000B384603F06CFC8146394641
:10130000FB4803F055FC04461CB9002010B0BDE8B2
:10131000F0874C44002538E000200C900D900E9092
:101320000F90824616E02078302802DB207839289A
:1013300005DD20782E2802D020782D2807D114F83A
:10134000012B50460AF1010A0CA90A5401E0641C61
:1013500000E000BF20783B2805D020780D2802D07F
:1013600020780A28DFD16A46E2A10CA803F002FC2B
:10137000012801D00020C9E79DED000B02A800EB79
:10138000C50080ED000B641C6D1CB542C4DB00255C
:1013900009E002A800EBC50090ED000B08EBC500CA
:1013A00080ED000B6D1CB542F3DB0120AEE710B5FC
:1013B0002DED048B8AB0182104A803F0A7FCCE48B9
:1013C000007801287ED10020CB490870CBA1C84805
:1013D00003F0EEFB88B3012204A9C8A0FFF77EFF4B
:1013E0009DED041BB0EE410AF0EE610A51EC100BCA
:1013F00005F0EAFEC0B2C44901EBC00090ED000B5D
:10140000B0EE408AF0EE608A53EC182BBFA003F0D8
:10141000F7FA9DED041BB0EE410AF0EE610A51ECC3
:10142000100B05F0D1FEC4B221460020FFF7ECFA04
:1014300001200AB0BDEC048B10BDFFE7B9A1AC4898
:1014400003F0B6FBD0B1012204A9B6A0FFF746FF16
:101450009DED041BB0EE410AF0EE610A53EC102B37
:10146000B3A003F0CDFA9DED041BB0EE410AF0EEFF
:10147000610A0020FFF71AFB0120DAE7B3A19C48BC
:1014800003F096FBC0B3012204A9B0A0FFF726FF2A
:101490009DED041BB0EE410AF0EE610A51EC100B19
:1014A00005F092FEC0B2984901EBC00090ED000B30
:1014B000B0EE408AF0EE608A53EC182BA7A003F040
:1014C0009FFA00E09AE29DED041BB0EE410AF0EEB7
:1014D000610A51EC100B05F077FEC4B2204605F00E
:1014E000A0FE41EC180BB0EE480AF0EE680A0020AE
:1014F000FFF76BFB01209CE7FFE79FA17C4803F00F
:1015000057FBB0B3012204A99BA0FFF7E7FE9DEDB6
:10151000041BB0EE410AF0EE610A51EC100B05F02D
:1015200053FEC0B2784901EBC00090ED000BB0EE65
:10153000408AF0EE608A53EC182B93A003F060FA17
:101540009DED041BB0EE410AF0EE610A51EC100B68
:1015500005F03AFEC4B2204605F063FE41EC180BDC
:10156000B0EE480AF0EE680A0020FFF75AFB0420AC
:101570005FE7FFE78BA15E4803F01AFB002860D00D
:10158000032204A987A0FFF7A9FE9DED081BB0EE7A
:10159000410AF0EE610A9FED861B53EC112B51ECD2
:1015A000100B05F07DFC41EC180B9DED041BB0EE1B
:1015B000410AF0EE610A51EC100B05F005FEC0B2D5
:1015C000514901EBC00090ED000BB0EE409AF0EEF7
:1015D000609A8DED028B9DED060B8DED000B53ECAB
:1015E000192B75A003F00CFA9DED081BB0EE410A13
:1015F000F0EE610A9FED6E1B53EC112B51EC100BBA
:1016000005F04EFC41EC190B05F004FC08EE100A45
:101610009DED041BB0EE410AF0EE610A51EC100B97
:1016200005F0D2FDC4B29DED061BB0EE410AF0EE0E
:10163000610AB0EE481A21460020FFF787FA05201C
:10164000F7E667A12A4803F0B3FA70B3012204A9B0
:1016500063A0FFF743FE9DED041BB0EE410AF0EEE0
:10166000610A51EC100B05F0AFFDC0B2264901EB49
:10167000C00090ED000BB0EE408AF0EE608A53ECB3
:10168000182B5AA003F0BCF99DED041BB0EE410AE3
:10169000F0EE610A51EC100B05F096FDC4B2214644
:1016A0000120FFF7B1F90120C3E6FFE755A110487B
:1016B00003F07EFAB0B1012204A952A0FFF70EFE9A
:1016C0009DED041BB0EE410AF0EE610A53EC102BC5
:1016D0004FA003F095F99DED041BB0EE410AF0EE2A
:1016E000610AA3E0A7E00000000000000000000085
:1016F00044020020256C6600C60000204D4F544F68
:1017000052582D433A000000380000204D4F544FEE
:1017100052582D433A524543454956453A25660DA0
:101720000A0000004D4F544F52582D533A0000000C
:101730004D4F544F52582D533A5245434549564503
:101740003A25666D6D2F730D0A0000004D4F544F02
:1017500052582D53544152543A0000004D4F544FAB
:1017600052582D53544152543A52454345495645D7
:101770003A25660D0A0000004D4F544F52582D5324
:10178000544F503A000000004D4F544F52582D53C3
:10179000544F503A524543454956453A25660D0A3D
:1017A000000000004D4F544F52582D52554E3A00F4
:1017B00000000000000024404D4F544F52582D525D
:1017C000554E3A524543454956453A25662C2566BD
:1017D000206D6D2F732C2566206D6D0D0A000000A5
:1017E0004D4F544F52592D433A0000004D4F544F26
:1017F00052592D433A524543454956453A25660DBF
:101800000A0000004D4F544F52592D533A0000002A
:101810004D4F544F52592D533A5245434549564521
:101820003A25666D6D2F730D0A0000000120FFF749
:101830003DF90120FDE572A1754803F0B9F9B0B397
:10184000012204A96EA0FFF749FD9DED041BB0EE37
:10185000410AF0EE610A51EC100B05F0B5FCC0B284
:101860006C4901EBC00090ED000BB0EE408AF0EE49
:10187000608A53EC182B68A003F0C2F89DED041B9E
:10188000B0EE410AF0EE610A51EC100B05F09CFC41
:10189000C4B2204605F0C5FC41EC180BB0EE480A76
:1018A000F0EE680A0120FFF790F90120C1E5FFE79B
:1018B00060A1574803F07CF9B0B3012204A95DA0F0
:1018C000FFF70CFD9DED041BB0EE410AF0EE610A3E
:1018D00051EC100B05F078FCC0B24E4901EBC00092
:1018E00090ED000BB0EE408AF0EE608A53EC182BBE
:1018F00054A003F085F89DED041BB0EE410AF0EE14
:10190000610A51EC100B05F05FFCC4B2204605F0F3
:1019100088FC41EC180BB0EE480AF0EE680A012092
:10192000FFF77FF9042084E5FFE74DA1384803F075
:101930003FF9002860D0032204A949A0FFF7CEFC9C
:101940009DED081BB0EE410AF0EE610A1FED681B29
:1019500053EC112B51EC100B05F0A2FA41EC180BD3
:101960009DED041BB0EE410AF0EE610A51EC100B44
:1019700005F02AFCC0B2274901EBC00090ED000B36
:10198000B0EE409AF0EE609A8DED028B9DED060B65
:101990008DED000B53EC192B34A003F031F89DEDC5
:1019A000081BB0EE410AF0EE610A1FED7F1B53ECFD
:1019B000112B51EC100B05F073FA41EC190B05F0EB
:1019C00029FA08EE100A9DED041BB0EE410AF0EE74
:1019D000610A51EC100B05F0F7FBC4B29DED061B3C
:1019E000B0EE410AF0EE610AB0EE481A214601203D
:1019F000FFF7ACF805201CE500201AE5002018E5EB
:101A00004D4F544F52592D53544152543A000000F7
:101A100044020020380000204D4F544F52592D539E
:101A2000544152543A524543454956453A25660D6C
:101A30000A0000004D4F544F52592D53544F503A05
:101A4000000000004D4F544F52592D53544F503AFF
:101A5000524543454956453A25660D0A00000000A7
:101A60004D4F544F52592D52554E3A004D4F544FF1
:101A700052592D52554E3A524543454956453A25FD
:101A8000662C2566206D6D2F732C2566206D6D0DDF
:101A90000A00000020B10021C0F84411C0F8401134
:101AA00070470146D1F84001401C0A2290FBF2F336
:101AB00002FB1300D1F84421904201D1012070476C
:101AC0000020FCE7014601F5A07005C8904201D155
:101AD000012070470020FCE70FB410B504462046F3
:101AE000FFF7DFFF18B1002010BC5DF814FBD4F83D
:101AF000401104EB4110202203A903F0D5F8D4F8DB
:101B00004001401C0A2190FBF1F201FB1200C4F8D5
:101B100040010120E8E7014601F5A07005C8801AE0
:101B20000A300A2290FBF2F302FB130080B27047E6
:101B300070B504460D461CB12046FFF7C3FF08B13F
:101B4000002070BDD4F8440104EB40112022284647
:101B500003F0AAF8D4F84401401C0A2190FBF1F2EA
:101B600001FB1200C4F844010120EAE701210170E1
:101B7000704701210170704701460878012803D1A0
:101B800000200870012070470020FCE700B58DB0F0
:101B9000F848FFF77FFFF848FFF7E8FFF7A0059048
:101BA00002208DF8180001208DF81A004FF47A7089
:101BB0000790142208A9684603F076F8ED4805A9B5
:101BC0000EC9FFF789FFEFA0059002208DF81800DD
:101BD00006208DF81A0045200790012108910991EF
:101BE0000A910B910C91142208A9684603F05CF845
:101BF000E04805A90EC9FFF76FFFE4A00590032098
:101C00008DF81800142208A9684603F04DF8D94849
:101C100005A90EC9FFF760FF0DB000BD2DE9F04F1B
:101C200085B0804600240025A3460026A2464446EF
:101C3000605DAA2805D1681C205C552801D10120CF
:101C400000E0002018B9002005B0BDE8F08FE81CC6
:101C5000215CA81C205C01EB00200490AF1D4FF01C
:101C60000009CB4607E038467F1C205C484400F062
:101C7000FF090BF1010BBBF10C0FF4DBE05D4845F4
:101C800001D00020E0E7AF1D00261EE04FF0000A63
:101C900009E038467F1C205CBD4901EB860101F854
:101CA0000A000AF1010ABAF1040FF2DBB84800EBAE
:101CB000860090ED000A10EE101A084605F034FC7C
:101CC000B44A02EBC60203C2761C032EDEDBB14827
:101CD00090ED040B8DED020B90ED020B8DED000BE2
:101CE00090ED001BB0EE410AF0EE610A53EC102BB0
:101CF000A9A002F085FE0120A6E72DE9F0410646E5
:101D00000027002417E004EB4401AC4A02EB8101F8
:101D1000486802F05FFFC5B204EB4400A74A02EB3B
:101D200080002A464168304602F073FF08B9274612
:101D300008E0601CC4B204EB4400A04911F8200084
:101D40000428E0D100BF3846BDE8F0812DE9F0411C
:101D50000025A8460027002007464CE0384600F042
:101D6000A8FC044694F83400012841D1002084F8EE
:101D70003400254692A1284602F01AFFF0B191A145
:101D8000284602F015FFC8B1281DFFF7B6FF06462A
:101D9000042E0DD029468CA002F032FE06EB460040
:101DA000864A02EB8000416887A002F029FE02E02B
:101DB00086A002F025FE4FF001080EE02878AA2840
:101DC00008D16878552805D12846FFF727FF4FF03E
:101DD000010802E082A002F013FEB8F1010F05D164
:101DE0006548FFF7C6FE0020BDE8F0810120FBE753
:101DF000781CC0B20746052FB0DB00BFF4E70FB474
:101E000010B592B00024342105A802F07FFF9DF8A0
:101E10005400012808D178A105A8149A02F0FCFD0D
:101E200005A800F031FC5FE09DF8540002284FD176
:101E30009DF85640072C45D2DFE804F044040B140B
:101E40001F2C3B006FA105A8169B149A02F0E4FD1D
:101E500039E0179800906EA105A8169B149A02F01D
:101E6000DBFD30E0DDE91701CDE900016CA105A83B
:101E7000169B149A02F0D0FD25E0DDE9171219989F
:101E8000CDE9001202906BA105A8169B149A02F0EE
:101E9000C3FD18E0DDE91723DDE91910CDE90023C2
:101EA000CDE9021068A105A8169B149A02F0B4FDB2
:101EB00009E0179800906AA105A8169B149A02F0F1
:101EC000ABFD00E000BF00BF05A800F0DDFB0BE0AC
:101ED0009DF85400032807D16AA105A8149A02F0BE
:101EE0009BFD05A800F0D0FB12B010BC5DF814FB00
:101EF00030B58DB005AD6548007801281CD11E486D
:101F0000FFF73AFE012802D003200DB030BD05A92D
:101F10001848FFF70DFE09A80FC88DE80F0005A8A7
:101F20000FC8FFF76CFF01222821304600F058F956
:101F3000002056490870ADE0FFF708FF04464CB991
:101F400000222821304600F04BF901204F4908704B
:101F50000020DAE7304600F050F948B1002228218D
:101F6000304600F03DF90120484908700220CCE7D6
:101F70008EE00000FC000020B8000020534D5052BD
:101F8000000000005347444D000000004753440048
:101F9000F0000020D8000020746865206361707430
:101FA0007572652064617461206973202566202044
:101FB000256620202566200D0A00000020770008F5
:101FC00041434B004F4B000025730A006E6F742095
:101FD0006D6174636820636F6D6D616E64200000D5
:101FE000636F6D6D616E6420666F726D61742065E4
:101FF00072726F720A00000041542B25733D3F0D31
:102000000A00000041542B25733D25640D0A000091
:1020100041542B25733D25642C25640D0A000000D6
:1020200041542B25733D25642C25642C25640D0A11
:102030000000000041542B25733D25642C25642CA1
:1020400025642C25640D0A0041542B25733D25641D
:102050002C25642C25642C25642C25640D0A000095
:1020600041542B25733D284130312C4130322C41D5
:102070003033293B25633B313B28574D413A25649A
:10208000290D0A0041542B25730D0A00B9000020C8
:1020900001203AE700BF38E710B5044634B105A087
:1020A00002F0AEFC08A000F0EFFA02E009A000F098
:1020B000EBFA10BD5265616C54696D654D6F6465D6
:1020C000204F4E0D0A00000041542B4753440D0A87
:1020D0000000000041542B4753443D53544F500DD2
:1020E0000A00000010B504466FF0040000F060FB29
:1020F000E11704EB5171C1F3C701504A117010464A
:10210000007800EB4001C1EBC0104FF6FF7101EA0F
:10211000C0004B49088010BD0146484A12784A4326
:102120004FF0E0235A6100229A611A46126942F088
:1021300001021A6100BF4FF0E022106900F00102B5
:102140001AB100F48032002AF5D04FF0E022126973
:1021500022F001024FF0E0231A6100229A617047D9
:102160000146374A12884A434FF0E0235A61002261
:102170009A611A46126942F001021A6100BF4FF0DB
:10218000E022106900F001021AB100F48032002A46
:10219000F5D04FF0E022126922F001024FF0E02367
:1021A0001A6100229A61704770B504464FF40770B7
:1021B00094FBF0F0C6B24FF4077094FBF0F100FB13
:1021C000114085B205E04FF40770FFF7C9FF701E9C
:1021D000C6B2002EF7D115B12846FFF7C1FF70BD7A
:1021E00070B504460E46154626602572154800F067
:1021F0006BFF80B26060012070BD10B50446207A8C
:10220000012818D12068B0B10E4800F05DFF00F53C
:102210007A706168401A4FF47A71B0FBF1F201FBF9
:1022200012002168884206D3064800F04DFF80B2B4
:102230006060012010BD0020FCE70000BA00002013
:10224000BC0000200010004000BF704700BFFE4AE5
:10225000128802F04002002AF9D0C2B2FA4B9A80EA
:10226000704710B504462CB14FF48071F74800F068
:10227000C1FB04E04FF48071F44800F0B9FB10BDDD
:1022800010B596B00446F04800F0FAFB012108466C
:1022900001F04CFE0121102001F0A2FE07220921CD
:1022A000EA4800F0B4FB07220A21E84800F0AFFB3F
:1022B0004FF4C060149002208DF8540003208DF874
:1022C000550000208DF8560001208DF8570014A904
:1022D000DE4800F011FB4FF48070149002208DF85E
:1022E000550000208DF8560001208DF8570014A9E4
:1022F000D64800F001FB10940020ADF84400ADF882
:102300004600ADF84800ADF84C000C20ADF84A008E
:1023100010A9CD4800F01BFC25208DF83C000220C0
:102320008DF83D0001208DF83E008DF83F000FA88C
:1023300000F0F1F944208DF83C0002208DF83D00BA
:102340008DF83E0001208DF83F000FA800F0E3F962
:10235000012240F22441BC4800F037FD0122402117
:10236000B94800F029FD0121880501F0DFFDB848DA
:1023700001F030FF4FF000600090B348001D019065
:10238000B448029000200390C820049000200590DB
:102390004FF48060069000200790089009904FF459
:1023A00040300A9003200C9000200D900E9069465A
:1023B000A74801F0B1FF0121A54801F0E7FF012185
:1023C000A14800F04CFC0120FFF74BFF16B010BDF8
:1023D00010B540F224419C4800F032FDE0B10120EC
:1023E0009D49087000219A4801F0D0FF984801F0FB
:1023F000F0FFC0F1C800994908809949944802F05B
:102400003EF8C821924801F0E2FF0121904801F016
:10241000BDFF8D4800F052FC40F227718A4800F061
:10242000F9FC28B9002240F22661874800F0CDFC73
:1024300010BD10B504462CB14FF48061894800F0FE
:10244000D9FA04E04FF48061864800F0D1FA10BD5B
:1024500010B596B00446844800F012FB0121082014
:1024600001F064FD0121880401F0A9FD0722092182
:102470007C4800F0CCFA072208217A4800F0C7FA1D
:102480004FF44070149002208DF8540003208DF812
:10249000550000208DF8560001208DF8570014A932
:1024A000704800F029FA4FF48060149002208DF8F3
:1024B000550000208DF8560001208DF8570014A912
:1024C000684800F019FA10940020ADF84400ADF807
:1024D0004600ADF84800ADF84C000C20ADF84A00BD
:1024E00010A9614800F033FB27208DF83C00022042
:1024F0008DF83D0001208DF83E008DF83F000FA8BB
:1025000000F009F90C208DF83C0002208DF83D0008
:102510008DF83E0001208DF83F000FA800F0FBF879
:10252000012240F22441504800F04FFC012240219A
:102530004D4800F041FC0121480501F0F7FC4B48F3
:1025400001F048FE4FF0006000904748001D0190E8
:10255000474802900020039032200490002005900C
:102560004FF48060069000200790089009904FF487
:1025700040300A9003200C9000200D900E90694688
:102580003A4801F0C9FE0121384801F0FFFE01215F
:10259000354800F064FB0120FFF74BFF16B010BD7B
:1025A00010B540F22441304800F04AFC002843D0E6
:1025B00000212E4801F0EAFE2C4801F00AFFC0F18C
:1025C000C8002C49097801EBC10101EB4101284AFF
:1025D00002EB4101488601202649097801EBC1013F
:1025E00001EB410102EB410181F8340022491F480F
:1025F00001F045FF1F480078401C1E49087008463E
:102600000078052801DB002008703221174801F00E
:10261000DEFE1848007800EBC00000EB40001449D3
:1026200001EB400011492839486301210F4801F0AE
:10263000ADFE0D4800F042FB40F227710A4800F061
:10264000E9FB00BB002219E000100140000002403D
:102650008864024044020020C6000020C40000201C
:1026600000080020000C02400048004028600240A2
:1026700042030020C70000200008001040F226613D
:10268000104800F0A2FB10BD70B5044600250CE018
:1026900000BF0C48008800F040000028F9D0284610
:1026A0006D1C215C074800F005FB605D0028EFD140
:1026B00070BD014601EBC10000EB4000024A02EB95
:1026C000400070470048004042030020094880470E
:1026D00009480047FEE7FEE7FEE7FEE7FEE7FEE704
:1026E000FEE7FEE7FEE7FEE704480549054A064B1C
:1026F000704700009903000889010008B004002019
:10270000B00A0020B0060020B00600203249014384
:10271000324A1160704770B5002100230F22C4783F
:102720001CB32E4C246804F4E064C4F5E064C4F3E4
:102730000721C1F10404E3B20A4144789C40E1B2AC
:102740008478144021430C07210E254C05786155EF
:10275000047804F01F050124AC4005786D11AD002C
:1027600005F1E025C5F8004109E0047804F01F05F3
:102770000124AC401B4D0678761145F8264070BD0B
:10278000194A0A400243154B1B1F1A60704739B1A2
:10279000124A121D12680243104B1B1D1A6006E0FC
:1027A0000E4A121D126882430C4B1B1D1A607047A3
:1027B000042808D14FF0E021096941F004014FF0ED
:1027C000E022116107E04FF0E021096921F00401E6
:1027D0004FF0E022116170470000FA050CED00E0B7
:1027E00000E400E080E100E080FFFF1F10B5044638
:1027F0009848844208D10121084601F002FC0021DA
:10280000012001F0FEFB76E09348844208D10121CB
:10281000022001F0F6FB0021022001F0F2FB6AE049
:102820008E48844208D10121042001F0EAFB0021F6
:10283000042001F0E6FB5EE08948844208D10121D2
:10284000082001F0DEFB0021082001F0DAFB52E055
:102850008448844208D10121102001F0D2FB0021DC
:10286000102001F0CEFB46E07F48844208D10121D0
:10287000202001F0C6FB0021202001F0C2FB3AE03D
:102880007A48844208D10121402001F0BAFB00219E
:10289000402001F0B6FB2EE07548844208D10121AA
:1028A000802001F0AEFB0021802001F0AAFB22E095
:1028B0007048844208D10121801501F0A2FB00215B
:1028C000A01501F09EFB16E06B48844208D101215F
:1028D000401501F096FB0021601501F092FB0AE023
:1028E0006648844207D10121001501F08AFB0021CE
:1028F000201501F086FB10BDF0B50A46002100232B
:10290000002400BF3DE0012505FA01F3156805EA42
:1029100003049C4234D105684F000326BE40B543F2
:10292000056015794E00B540066835430560157998
:10293000012D02D01579022D16D185684F0003268E
:10294000BE40B543856055794E00B5408668354335
:102950008560456801268E40B54345604568967997
:102960008E40B6B235434560C5684F000326BE4071
:10297000B543C560D5794E00B540C6683543C560DE
:10298000491C1029BFD3F0BD4FF6FF710160002133
:10299000017141718171C171704708B54FF4803286
:1029A0000092009A0A430092009AC261C161009AA3
:1029B000C261C2690092C269009208BD024600204D
:1029C00013690B400BB1012000E000207047014665
:1029D000086980B270470246002053690B400BB172
:1029E000012000E0002070470146486980B270472E
:1029F00001837047418370470AB1018300E041833E
:102A000070474161704742694A4042617047F0B582
:102A1000002300244D07ED0E02FA05F3CE1000F15D
:102A2000200555F826504E07F70E0F26BE40B54339
:102A3000CF1000F1200646F82750CE1000F12005F7
:102A400055F8265045EA0304CE1000F1200545F85C
:102A50002640F0BD00000240000402400008024091
:102A6000000C024000100240001402400018024016
:102A7000001C0240002002400024024000280240C6
:102A800010B50446FA48844208D10121102001F013
:102A9000FCFA0021102001F0F8FA57E0F5488442D2
:102AA00009D10121480401F0DFFA00214FF4003080
:102AB00001F0DAFA4AE0F048844209D101218804A1
:102AC00001F0D2FA00214FF4802001F0CDFA3DE070
:102AD000EA48844209D10121C80401F0C5FA002165
:102AE0004FF4002001F0C0FA30E0E548844209D1FB
:102AF0000121080501F0B8FA00214FF4801001F01F
:102B0000B3FA23E0DF48844208D10121202001F0FC
:102B1000BCFA0021202001F0B8FA17E0DA4884421C
:102B200009D10121880701F09FFA00214FF0804070
:102B300001F09AFA0AE0D548844207D10121400504
:102B400001F092FA0021600501F08EFA10BD2DE926
:102B5000FF4705460E460024A14600BFA046B089A7
:102B600000B100BF2C8A24F44054F08804432C8226
:102B7000AC8941F20C608443B08831890843718983
:102B800008430443AC81AC8A24F44074B089044304
:102B9000AC82684601F0F9F8B548854202D0B948E0
:102BA000854202D1DDF80C9001E0DDF80890A8899B
:102BB00000F4004040B109EBC90000EB0910316896
:102BC0004900B0FBF1F707E009EBC90000EB091081
:102BD00031688900B0FBF1F76420B7FBF0F0040125
:102BE0002009642101FB1078A88900F4004040B15D
:102BF000322000EBC800B0FBF1F000F00700044306
:102C000008E0322000EB08106421B0FBF1F000F086
:102C10000F0004432C81BDE8FF874FF4165101607B
:102C200000218180C18001810C21418100218181AD
:102C3000704710B502460020108A20F470600B889F
:102C40004C8823438C882343CC8823431843108229
:102C500010BD0021018041808180C180704721B179
:102C6000828942F40052828104E082894DF6FF732A
:102C70001A4082817047028B02F47F420283028BEA
:102C80000A430283704721B1828942F40042828163
:102C900003E08289C2F30E028281704721B1828AE9
:102CA00042F40062828204E0828A4FF2FF731A408B
:102CB00082827047C1F3080282807047014688888B
:102CC000C0F308007047028A4FF6F0731A40028280
:102CD000028A0A430282704721B1828942F00202CD
:102CE000828104E082894FF6FD731A408281704729
:102CF00082894FF2FF731A40828182890A4382815E
:102D00007047028A4FF6DF731A400282028A0A4332
:102D10000282704721B1028A42F48042028204E0BA
:102D2000028A4BF6FF731A4002827047818941F094
:102D300001018181704721B1828A42F008028282BA
:102D400004E0828A4FF6F7731A4082827047028B42
:102D5000D2B20283028B42EA01220283704721B180
:102D6000828A42F02002828204E0828A4FF6DF7378
:102D70001A408282704721B1828A42F01002828218
:102D800004E0828A4FF6EF731A4082827047828A8B
:102D90004FF6FB731A408282828A0A43828270470E
:102DA00021B1828A42F00202828204E0828A4FF6D6
:102DB000FD731A40828270471AB1838A0B43838263
:102DC00002E0838A8B4383827047F0B50346002478
:102DD00000260025002040F66A17B94200D100BF46
:102DE0001846C1F3421401F01F06012707FA06F541
:102DF000012C01D10C3004E0022C01D1103000E094
:102E000014301AB107682F43076002E00768AF4328
:102E10000760F0BD02460020B1F5007F00D100BF81
:102E200013880B400BB1012000E00020704701F433
:102E30000072B2F5007F00D100BFCA430280704724
:102E400070B50246002400230025002040F66A16D3
:102E5000B14200D100BFC1F3421501F01F030126AA
:102E600006FA03F3012D13D19689334017E00000D1
:102E7000001001400044004000480040004C004069
:102E8000005000400014014000780040007C0040E9
:102E9000022D02D1168A334001E0968A33400C128B
:102EA000012606FA04F41688344013B10CB101204F
:102EB00000E0002070BD10B50022002340F66A1427
:102EC000A14200D100BF0A1201249440A3B2DC4306
:102ED000048010BD10B50446FE48844208D101218B
:102EE000084601F0D2F80021012001F0CEF89DE063
:102EF000B4F1804F08D10121084601F0B5F8002156
:102F0000012001F0B1F891E0F348844208D1012199
:102F1000022001F0A9F80021022001F0A5F885E0C7
:102F2000EE48844208D10121042001F09DF80021DF
:102F3000042001F099F879E0E948844208D10121A0
:102F4000082001F091F80021082001F08DF86DE0D3
:102F5000E448844208D10121102001F085F80021C5
:102F6000102001F081F861E0DF48844208D101219E
:102F7000202001F079F80021202001F075F855E0BB
:102F8000DA48844208D10121022001F07EF80021B4
:102F9000022001F07AF849E0D548844209D10121A4
:102FA000080401F072F800214FF4803001F06DF850
:102FB0003CE0D048844209D10121480401F065F881
:102FC00000214FF4003001F060F82FE0CA4884423D
:102FD00009D10121880401F058F800214FF4802024
:102FE00001F053F822E0C548844208D10121402075
:102FF00001F03AF80021402001F036F816E0C04810
:10300000844208D10121802001F02EF80021802087
:1030100001F02AF80AE0BB48844207D1012180155B
:1030200001F022F80021A01501F01EF810BD0022C9
:103030000288A84B98420ED0AC4B98420BD0B0F10E
:10304000804F08D0A44B984205D0A44B984202D0A0
:10305000A34B984204D14FF68F731A404B881A4302
:10306000A04B984207D0A04B984204D04FF6FF43A4
:103070001A400B891A4302804B68C3620B88038590
:10308000944B984202D0994B984201D18B7A038697
:103090000123838270474FF0FF314160002101809E
:1030A00001814180817270470185828270470A46A2
:1030B000002101884FF68F7319401143018070473A
:1030C00041627047C16270470146486A70470146D5
:1030D000088D704721B1028842F00202028004E0AC
:1030E00002884FF6FD731A400280704721B10288B2
:1030F00042F00402028004E002884FF6FB731A409B
:103100000280704721B1028842F08002028004E010
:1031100002884FF67F731A400280704702884FF68C
:10312000F7731A40028002880A43028070470288BF
:103130004FF6FF431A40028002880A43028070471C
:1031400021B1028842F00102028004E002884FF6B9
:10315000FE731A400280704770B5002400220023DD
:10316000058C4FF6FE7635400584028C8388048BEF
:103170004FF68F752C40B51E2C400D882C43751EC4
:103180002A408D892A434D882A43524DA84202D0B5
:10319000564DA84213D14FF6F7752A40CD892A43E0
:1031A0004FF6FB752A408D882A434FF6FF652B406A
:1031B0004FF6FF552B400D8A2B434D8A2B438380BE
:1031C00004838D684563028470BD70B500240022BD
:1031D0000023058C4FF6EF7635400584028C8388FA
:1031E000048B48F6FF752C404FF6FF452C400D88A8
:1031F0004FF6FF7606EA05252C434FF6DF752A4089
:103200008D8906EA05152A434D8806EA05152A43E5
:10321000304DA84202D0354DA8421DD14FF67F75E2
:103220002A40CD894FF6FF7606EA05152A434FF668
:10323000BF752A408D8806EA05152A434FF6FF35EB
:103240002B404FF2FF752B400D8A06EA85052B4374
:103250004D8A06EA85052B43838004838D68856348
:10326000028470BD70B5002400220023058C4FF647
:10327000FF6635400584028C8388848B4FF68F75FA
:103280002C404FF6FC752C400D882C434FF6FF5513
:103290002A408D894FF6FF7606EA05252A434D8898
:1032A00006EA05252A430B4DA84202D00F4DA8423D
:1032B00038D14FF2FF752A40CD894FF6FF7606EAE6
:1032C00005252A434FF6FF352A408D8806EA052555
:1032D0002A4319E0000001400004004000080040BB
:1032E000000C0040001000400014004000040140A9
:1032F00000400140004401400048014000180040E7
:10330000001C0040002000404EF6FF752B404DF69B
:10331000FF752B400D8A06EA05152B434D8A06EAF8
:1033200005152B43838084838D68C563028470BD3B
:1033300070B5002200230024058C4EF6FF76354040
:103340000584038C8488828B48F6FF752A404FF6EB
:10335000FF452A400D884FF6FF7606EA05252A43E9
:103360004DF6FF752B408D8906EA05352B434D88B8
:1033700006EA05352B43FE4DA84202D0FD4DA8427A
:1033800008D14BF6FF752C400D8A4FF6FF7606EA02
:1033900085152C43848082838D680564038470BD09
:1033A000002101804180818081608181C181018211
:1033B0004182704770B5034600200024184618303B
:1033C00001258D40ACB21D8CA5431D8409B108298F
:1033D0000AD100EB610005684FF68F763540056035
:1033E0000568154305600FE00D1FC5F34E05284421
:1033F000056848F6FF763540056005684FF6FF76AC
:1034000006EA02263543056070BD4163704781635B
:103410007047C1637047016470470A460021018B01
:103420004FF68F7319401143018370470A460021FC
:10343000018B48F6FF7319404FF6FF7303EA02232E
:103440001943018370470A460021818B4FF68F7321
:1034500019401143818370470A460021818B48F649
:10346000FF7319404FF6FF7303EA02231943818368
:1034700070470A460021018B4FF6F773194011433C
:10348000018370470A460021018B4FF2FF731940F8
:103490004FF6FF7303EA02231943018370470A467C
:1034A0000021818B4FF6F7731940114381837047D8
:1034B0000A460021818B4FF2FF7319404FF6FF73CC
:1034C00003EA02231943818370470A460021018BD6
:1034D0004FF6FB7319401143018370470A460021E0
:1034E000018B4FF6FF3319404FF6FF7303EA0223B7
:1034F0001943018370470A460021818B4FF6FB7305
:1035000019401143818370470A460021818B4FF691
:10351000FF3319404FF6FF7303EA022319438183F7
:1035200070470A460021018B4FF67F731940114303
:10353000018370470A460021018BC1F30E014FF64B
:10354000FF7303EA02231943018370470A460021EF
:10355000818B4FF67F7319401143818370470A4670
:103560000021818BC1F30E014FF6FF7303EA0223A2
:103570001943818370470A460021018C4FF6FD7381
:1035800019401143018470470A460021018C4FF60F
:10359000F77319401143018470470A460021018CDA
:1035A0004FF6DF7319404FF6FF7303EA0213194316
:1035B000018470470A460021018C4FF67F73194041
:1035C0004FF6FF7303EA02131943018470470A465A
:1035D0000021018C4FF6FF5319404FF6FF7303EAA9
:1035E00002231943018470470A460021018C4FF2DF
:1035F000FF7319404FF6FF7303EA02231943018456
:1036000070470A460021018C4DF6FF7319404FF6B2
:10361000FF7303EA023319430184704730B5002376
:1036200001248C40A3B2048C9C430484048C02FAD1
:1036300001F5ADB22C43048430BD30B50023042421
:103640008C40A3B2048C9C430484048C02FA01F5E0
:10365000ADB22C43048430BD828B4FF2FF331A404D
:103660008283828B4FF6FF7303EA01231A4382831E
:103670007047F0B50C461546002100220026078C45
:103680004EF6FF7C07EA0C070784818B028C4FF60D
:10369000FF7707EA043640F6FF4739404FF6FF77D9
:1036A00007EA052739434FF6FF7707EA033739431F
:1036B00045F6FF773A4046F480573A4381830284C7
:1036C000F0BD828B4FF6F3731A408283828B0A43DC
:1036D00082837047F0B50C46154600210022002673
:1036E000078C4FF6FF6C07EA0C070784818B028C6E
:1036F0004FF6FF7707EA04264FF60C7739404FF66E
:10370000FF7707EA03172F4339434FF2FF573A4039
:1037100046F480773A4381830284F0BD028B4FF2F6
:10372000FF331A400283028B4FF6FF7303EA012333
:103730001A4302837047F0B50C461546002100225B
:103740000026078C4FF6EF7C07EA0C070784018BF5
:10375000028C4FF6FF7707EA041640F6FF47394020
:103760004FF6FF7707EA033739434FF6FF7703E059
:10377000000001400004014007EA052739434FF6E5
:103780005F773A4046F010073A4301830284F0BD68
:10379000028B4FF6F3731A400283028B0A430283B3
:1037A0007047F0B50C46154600210022068C4FF6F6
:1037B000FE773E400684018B028C4FF60C7631403A
:1037C0007E1C06EA03162E4331434FF6F57632404F
:1037D00044F00106324301830284F0BD70B5054612
:1037E0000C46208850B92389A28861882846FFF7B3
:1037F000D8FFE1882846FFF7CBFF25E02088042882
:103800000AD12389A28861882846FFF794FFE188BE
:103810002846FFF783FF17E0208808280AD123896C
:10382000A28861882846FFF755FFE1882846FFF700
:1038300048FF09E02389A28861882846FFF719FF1D
:10384000E1882846FFF708FF70BD00210180418014
:10385000012181800021C180018170472DE9F04163
:1038600005460C4600260127608808B9022600E0BC
:103870000026A088012801D1022700E00127208826
:10388000A0B92389A28861882846FFF78AFFE188CA
:103890002846FFF77DFF23893A4631462846FFF741
:1038A0004AFFE1882846FFF739FF13E02389A28801
:1038B00061882846FFF73FFFE1882846FFF72EFF83
:1038C00023893A4631462846FFF76BFFE1882846B0
:1038D000FFF75EFFBDE8F0810146486B7047014687
:1038E000886B70470146C86B70470146086C70478B
:1038F0000A884B881A438B881A43CB881A430B8952
:103900001A434B891A438B891A43A0F84420704705
:103910000021018041808180C180018141818181BC
:10392000704731B1B0F8442042F40042A0F844207E
:1039300005E0B0F84420C2F30E02A0F8442070471E
:1039400021B1828842F00402828004E082884FF62E
:10395000FB731A408280704721B1828842F00102D5
:10396000828004E082884FF6FE731A40828070479E
:103970001AB183890B43838102E083898B4383815E
:1039800070478182704702460020138A0B400BB1BA
:10399000012000E000207047CA430282704730B522
:1039A0000246002000230024158A05EA01039589B8
:1039B00005EA010413B10CB1012000E0002030BD84
:1039C000CA430282704741EA0203A0F848307047B8
:1039D0001AB183890B43838102E083898B438381FE
:1039E000704721B1828842F00802828004E0828818
:1039F0004FF6F7731A408280704701894FF6F872CC
:103A00001140018170470A46002101894FF68F73EA
:103A1000194011430181704730B504460D462946CF
:103A20002046FFF7F0FF208940F00700208130BDDD
:103A30002DE9F04104460D4616461F46602D06D17D
:103A40003B46012231462046FFF775FE05E03B4626
:103A5000012231462046FFF7A4FE29462046FFF703
:103A6000D2FF208940F007002081BDE8F08130B509
:103A70000C4600210189C9B24FF6FF7505EA0325FE
:103A8000154325432943018130BD2DE9F041054609
:103A90000E4617469846002443463A463146284685
:103AA000FFF7E5FF2C894FF6F870044044F0070457
:103AB0004FF68F70044044F070042C81BDE8F08113
:103AC000F0B504460D4616461F463B46324629468B
:103AD0002046FFF7CCFF208940F480402081F0BDD4
:103AE00082884FF68F731A40828082880A438280D0
:103AF000704702894FF6F8731A40028102890A431F
:103B00000281704702894FF67F731A400281028951
:103B10000A4302817047F0B50C4615461E46002147
:103B2000002200230189028B038C4FF6F87739407D
:103B300021434FF6FC473A4040F201173A434FF613
:103B4000DD773B404FF6FF7707EA06172F433B43ED
:103B5000018102830384F0BD21B1828842F080029A
:103B6000828004E082884FF67F731A40828070471B
:103B7000A0F8501070470000F948006840F00100BC
:103B8000F74908600020F64908310860F4480068E9
:103B9000F4490840F2490860F348091D0860F348F9
:103BA000EF4984310860F0481038091D0860EC487E
:103BB000006820F48020EA4908600020E8490C31C0
:103BC0000860E7498C31086070470021E44A921C84
:103BD000117011460870704710B50146002200238D
:103BE00000204A11012A02D1DD4C236808E0022A94
:103BF00003D1DB4C7034236802E0D94C7434236861
:103C000001F01F02012494401C400CB1012000E08F
:103C1000002010BD38B5002000900024002500BF12
:103C20003120FFF7D9FF05460098401C009000980E
:103C3000B0F5A04F01D0002DF2D03120FFF7CCFF1E
:103C400008B1012400E00024204638BD01460020D0
:103C5000C34A106820F0F80040EAC10010607047C5
:103C6000C349086070470021BD4A7032117011705D
:103C7000012802D004280AD104E00121B84A703298
:103C8000117005E00521B64A7032117000E000BFE6
:103C900000BF7047B7490860704770B5049C41EA9F
:103CA00082150126C6EB530645EA0645054345EA5B
:103CB0000465AB4E361D356070BDAD490866704772
:103CC000820142EA0172A64B84331A607047A84908
:103CD0008866704710B5830143EA016343EA0273C3
:103CE0009F4C8834236010BDA14908677047A049E4
:103CF000C864704702460020994B0833186820F0CA
:103D0000EC6042EA01031843954B08331860704792
:103D100002460020924B0833186820F0784042EAAF
:103D2000010318438E4B083318607047014600208A
:103D30008B4A0832106820F0030008431060704777
:103D400087480830006800F00C00704701460020EA
:103D5000834A0832106820F0F00008431060704772
:103D6000014600207E4A0832106820F4E0500843E3
:103D70001060704701460020794A0832106820F42C
:103D8000604040EAC10010607047F0B50021002299
:103D90000024022500260223714F08373F6807F0F0
:103DA0000C0121B1042905D0082937D105E0724F53
:103DB000076036E0714F076033E0694F3F1D3F6891
:103DC000C7F38056664F3F1D3F6807F03F036EB153
:103DD0006A4FB7FBF3F7DFF888C10CF1040CDCF88D
:103DE00000C0CCF3881C07FB0CF40CE0624FB7FB5F
:103DF000F3F7DFF86CC10CF1040CDCF800C0CCF375
:103E0000881C07FB0CF4564F3F1D3F68C7F3014762
:103E10007F1C7D00B4FBF5F7076002E0564F07609A
:103E200000BF00BF4E4F08373F6807F0F001090997
:103E3000534F7A5C0768D7404760494F08373F685F
:103E400007F4E051890A4E4F7A5C4768D740876093
:103E5000434F08373F6807F46041490B484F7A5C8D
:103E60004768D740C760F0BD002100F44072B2F54A
:103E7000407F0AD13A4A0832116821F4F811414AC8
:103E800002401143364A08321160354A70321268D6
:103E9000C0F30B031A43324B70331A607047354935
:103EA00044390860704733494039086070473649E3
:103EB0000860704701460020294A8C32106820F0C3
:103EC0001F004A1E1043264A8C321060704701467C
:103ED0000020234A8C32106820F4F8504A1E40EA31
:103EE00002201F4A8C3210607047014600201C4A95
:103EF0008C32106820F4401008431060704701466F
:103F00000020174A8C32106820F4400008431060EB
:103F1000704701460020124A8C32106820F440306D
:103F200008431060704719490860704739B10C4A5E
:103F30003032126802430A4B30331A6006E0084AF6
:103F4000303212688243064B30331A607047F9B141
:103F5000034A343212680243014B34331A601CE0C6
:103F600000380240FFFFF6EA103000240030002045
:103F700000004742800E47420024F40000127A00FD
:103F8000C8000020FFFCFF0F5C014742E0114742E0
:103F90008F4A126882438E4B1A60704739B18C4A3F
:103FA000121D126802438A4B1B1D1A6006E0884AE4
:103FB000121D12688243864B1B1D1A60704739B16F
:103FC000834A0C3212680243814B0C331A6006E0BC
:103FD0007F4A0C32126882437D4B0C331A60704763
:103FE00039B17B4A103212680243794B10331A60A0
:103FF00006E0774A103212688243754B10331A601C
:10400000704739B1724A243A12680243704B243B1C
:104010001A6006E06E4A243A126882436C4B243BD5
:104020001A60704739B16A4A203A12680243684BF5
:10403000203B1A6006E0664A203A12688243644BCD
:10404000203B1A60704739B1614A1C3A126802433A
:104050005F4B1C3B1A6006E05D4A1C3A12688243C3
:104060005B4B1C3B1A60704739B1594A143A1268CD
:104070000243574B143B1A6006E0554A143A126843
:104080008243534B143B1A60704739B1504A103A7F
:10409000126802434E4B103B1A6006E04C4A103A3D
:1040A000126882434A4B103B1A60704739B1484A44
:1040B0001C3212680243464B1C331A6006E0444A25
:1040C0001C3212688243424B1C331A60704739B16C
:1040D0003F4A2032126802433D4B20331A6006E00B
:1040E0003B4A203212688243394B20331A607047B2
:1040F00039B1374A243212680243354B24331A60EF
:1041000006E0334A243212688243314B24331A606A
:10411000704739B12E4A2C32126802432C4B2C3393
:104120001A6006E02A4A2C3212688243284B2C334C
:104130001A60704739B1264A303212680243244B64
:1041400030331A6006E0224A303212688243204B34
:1041500030331A607047012808D11D493C31096885
:1041600041F008011A4A3C32116007E018493C311D
:10417000096821F00801164A3C321160704739B1D4
:10418000134A273A12780243114B273B1A7006E074
:104190000F4A273A127882430D4B273B1A7070471B
:1041A0000B484030006840F0807009494031086099
:1041B000704701460020064A283A12680A400AB1B0
:1041C000012000E00020704701492639087070473F
:1041D00034380240016821F00101016000210160D2
:1041E00041608160C160016121214161DB498842F8
:1041F00004D13D21D94A103A91608CE0D749183159
:10420000884205D14FF47461D44A103A916082E03B
:10421000D2493031884205D14FF47411CF4A103A57
:10422000916078E0CD494831884205D14FF0746102
:10423000CA4A103A91606EE0C8496031884204D1A0
:10424000C749C64A103AD16065E0C449783188420E
:1042500004D1C449C14A103AD1605CE0BF499031F1
:10426000884204D1C049BD4A103AD16053E0BB49ED
:10427000A831884205D14FF03D51B84A103AD1607B
:1042800049E0BA49884204D13D21B84A083A116050
:1042900041E0B6491831884205D14FF47461B34A00
:1042A000083A116037E0B1493031884205D14FF406
:1042B0007411AE4A083A11602DE0AC494831884289
:1042C00005D14FF07461A94A083A116023E0A7496B
:1042D0006031884204D1A249A44A121F11601AE039
:1042E000A2497831884204D19E49A04A121F116028
:1042F00011E09E499031884204D19B499B4A121F8C
:10430000116008E09949A831884204D14FF03D512D
:10431000964A121F1160704710B500220268944B34
:104320001A40CC680B6823434C6923438C692343B0
:10433000CC6923430C6A23434C6A23438C6A23438E
:104340004C6B23438C6B23431A430260426922F077
:104350000702D1E90B3423431A4342610B694360DE
:104360004B6883608B68C36010BD002101604160B1
:104370008160C160016141618161C161016241622D
:104380008162C162016341638163704721B1026848
:1043900042F00102026003E0026822F001020260C2
:1043A000704721B1026842F40042026003E00268F3
:1043B00022F400420260704721B1026842F02002FC
:1043C000026003E0026822F0200202607047416050
:1043D00070470146486880B2704722B1036843F4D1
:1043E0000023036003E0036823F4002303600161FA
:1043F000704721B1026842F48022026003E0026843
:1044000022F48022026070470AB1016100E0C160BD
:104410007047014600200A6802F400220AB1012018
:1044200000E000207047014600200A6802F0010207
:104430000AB1012000E000207047014600204A69CF
:1044400002F03800704730B503460A4600200024C9
:10445000464DAB4202D24149103901E0434910397F
:1044600002F000550DB14C6800E00C68414D2C4045
:1044700004EA02050DB1012000E0002030BD024633
:104480003A4B9A4202D23548103801E0374810388A
:1044900001F000531BB1374B0B40C36002E0354BBA
:1044A0000B408360704710B501F080034BB122B11F
:1044B000436943F08003436103E0436923F08003D1
:1044C000436180290BD02AB1036801F01E04234305
:1044D000036004E0036801F01E04A343036010BD01
:1044E00070B50246002000240025204EB24202D2C0
:1044F0001A4B103B01E01D4B103B1F4E0E4036B1D6
:104500001E2606EAD124166806EA040502E056696A
:1045100006F0800501F000560EB15C6800E01C68F2
:10452000144E344004EA010616B10DB1012000E03A
:10453000002070BD02460D4B9A4202D20748103847
:1045400001E00A48103801F000531BB1094B0B4041
:10455000C36002E0074B0B4083607047106002406D
:104560003D000020400F002000003D20106402406C
:104570003F801CF07D0F7D0F3C0F3C0F10B50446B3
:10458000FB48844208D101218014FFF77EFD002101
:10459000A014FFF77AFD3CE0F648844208D10121DF
:1045A0000014FFF761FD00212014FFF75DFD30E0EE
:1045B000F148844208D10121C013FFF755FD0021C5
:1045C000E013FFF751FD24E0EC48844208D10121BB
:1045D0004014FFF75AFD00216014FFF756FD18E064
:1045E000E748844209D101210805FFF74EFD00216B
:1045F0004FF48010FFF749FD0BE0E248844208D1F8
:1046000001214805FFF741FD00214FF40010FFF79D
:104610003CFD10BD10B50022028802F441520B8807
:104620004C8823438C882343CC8823430C89234321
:104630004C8923438C892343CC8923431A4302802A
:10464000838B4FF2FF74234083830B8A038210BD58
:104650002DE9F04F0025022300244FF0010900222C
:104660000026002794469046B0F81CA04FF2400B5D
:104670000AEA0B0AA0F81CA04FF0020AA0F820A03A
:10468000858BD1F808A0BAF1020F01D100BF82E0FA
:10469000B1F804A0BAF1000F02D14FF0010901E016
:1046A0004FF00209DFF8E0A2DAF800A00AF4000AED
:1046B000BAF1000F09D0DFF8D0A2DAF800A02AF48E
:1046C000000ADFF8C4B2CBF800A0DFF8BCA20AF100
:1046D0007C0ADAF800A0CAF3881CDFF8ACA20AF161
:1046E0007C0ADAF800A0CAF30278DFF89CA2AAF1EB
:1046F000040ADAF800A00AF03F07DFF88CA2AAF15A
:10470000040ADAF800A00AF4800ABAF5800F08D18A
:10471000DFF878A2BAFBF7FA0AFB0CFABAFBF8F654
:1047200007E0DFF86CA2BAFBF7FA0AFB0CFABAFB57
:10473000F8F6B1F806A0BAF5007F0ED14FEA162AB6
:104740000AEB8A0A4FEA4A0AD1F808B0BAFBFBFA28
:104750000AF1050A1FFA8AF20FE04FEA491AB6FB7E
:10476000FAFA0AEB8A0A4FEA4A0AD1F808B0BAFB09
:10477000FBFA0AF1050A1FFA8AF24FF00A0AB2FBA5
:10478000FAF202F00104A2EB040ACAF34F034FF657
:10479000FF7A0AEA0424022B01DBFF2B01DD02234E
:1047A0000024B1F806A04AEA040A4AEA030AA0F87B
:1047B00020A0B1F804A0B1F80CB04AEA0B0AB1F895
:1047C00002B04AEA0B0AB1F800B04AEA0B0A4AF40E
:1047D000006A4AEA05058583BDE8F08F0021018063
:1047E00041808180C180018141818181C181072116
:1047F000018270470021018041808180C1800221B7
:10480000816000218181704721B1028842F040021D
:10481000028004E002884FF6BF731A40028070479E
:1048200021B1828B42F48062828304E0828B4FF656
:10483000FF331A408283704702884FF2FF731A4099
:10484000028002880A4302807047B1F5804F04D18C
:10485000028842F48042028004E002884BF6FF7333
:104860001A40028070474FF6FF62914204D00288DE
:1048700042F48072028004E002884FF6FF631A401F
:104880000280704721B1828842F00402828004E0F5
:1048900082884FF6FB731A408280704721B182886C
:1048A00042F01002828004E082884FF6EF731A40D3
:1048B0008280704730B500220023848B4FF2400580
:1048C0002C40848302240484828B0C88B4F5007FFE
:1048D00001D00C8814B94FF4807308E00C88B4F54B
:1048E000407F03D00C88B4F5807F00D100238C88F2
:1048F0008D892C434D882C431C4344F4006422438F
:10490000828330BD0146888970478181704721B11B
:10491000028842F40052028004E002884DF6FF73E0
:104920001A4002807047018841F48051018070472D
:1049300002460020012901D0108B00E0908A7047C8
:104940000146088A70471AB183880B43838002E0CE
:1049500083888B438380704730B5002400230C117B
:104960000125A540ABB2AAB185881D43858014E01E
:104970000030014000380040003C0040003401405D
:1049800000500140005401400838024000127A00F3
:104990000024F40085889D43858030BD02460020B8
:1049A00013890B400BB1012000E000207047CA437F
:1049B00002817047F0B50246002000240023002544
:1049C00001F00F070126BE40B4B20B1101269E4034
:1049D000B3B2968806EA03051689264016B10DB1D2
:1049E000012000E00020F0BD10B5002201F00F040E
:1049F0000123A3409AB2D343038110BD7047000046
:104A00000FB4044910B503AA029800F045FC10BC8D
:104A10005DF814FBC00000200FB41CB5074B06AABC
:104A20007B4469460090059800F007FC0020694629
:104A300000F016FC1CBC5DF814FB00003D080000F3
:104A40002DE9F0410E460446002020622046E16830
:104A5000884730B3252805D0D4E901219047206A42
:104A6000401CF2E7E168204600278847050018D07F
:104A7000A5F14100192802D820354FF400673246CD
:104A8000294620462760FBF7B9FB40B1012804D036
:104A9000F61D26F007060836D8E7361DD6E7284665
:104AA000DAE7206ABDE8F08170B50C460546012AB8
:104AB00005D02878800600D5EA69002302E00123AA
:104AC00005E05B1C934202D2E05C0028F9D1A869A2
:104AD000E618C01AA861286A184428622846AFF36D
:104AE000008004E0D5E9012114F8010B9047B4429D
:104AF000F8D32846AFF3008070BD00002DE9F041E7
:104B00000646002410687529314616A510D0AFF36B
:104B10000080002802DA404213A507E031688A07C6
:104B200001D512A502E0490704D511A5012401E031
:104B3000AFF3008000210A2206F1240709E0B0FB50
:104B4000F2FCB0FBF2F302FB1C0030307854184644
:104B5000491C0028F3D123462A463046BDE8F041DF
:104B600000F0FFB8000000002D0000002B00000046
:104B7000200000000FB400B58DB010A9099000917D
:104B80000B904FF0FF300A9000200C9006487844BC
:104B90000690064878446A4607900F9909A800F0E5
:104BA000E5FD0DB05DF814FBFB0B0000130C0000DD
:104BB00030B505460B462A4613F8014B12F8010B97
:104BC00008B1A042F8D01CB1002802D06D1CF1E75A
:104BD000284630BD10B5431C02E010F8011B71B12E
:104BE0008107FAD14FF0013202C88C1A8C4314EAC3
:104BF000C211F9D0C01A0A0603D0C01E10BDC01AD7
:104C000010BD0A0401D0801E10BD0902FCD0401E58
:104C100010BD40EA010370B59B072ED14FF001365D
:104C2000042A2AD308C810C99D1B9D43121F15EAE8
:104C3000C61517D0D8B2E1B2401A50EA056110D1BA
:104C400098B2A1B2401A50EA05410AD123F07F4040
:104C500024F07F41401A50EA052102D1180EA0EB42
:104C6000146070BDA342DBD018BA21BA884201D9C2
:104C7000012070BD4FF0FF3070BD0AB9002070BD3B
:104C800010F8013B11F8014B63B1A3420AD1521E47
:104C900008D010F8013B11F8014B1BB1A34201D120
:104CA000521EEDD1181B70BD10B5203AC0F00B801C
:104CB000B1E81850203AA0E81850B1E81850A0E820
:104CC0001850BFF4F5AF5FEA027C24BFB1E818507A
:104CD000A0E8185044BF18C918C0BDE810405FEAEA
:104CE000827C24BF51F8043B40F8043B08BF704766
:104CF000D20728BF31F8023B48BF11F8012B28BF6B
:104D000020F8023B48BF00F8012B70474FF000022B
:104D100000B5134694469646203922BFA0E80C50B1
:104D2000A0E80C50B1F12001BFF4F7AF090728BF8C
:104D3000A0E80C5048BF0CC05DF804EB890028BF08
:104D400040F8042B08BF704748BF20F8022B11F031
:104D5000804F18BF00F8012B7047704770477047AD
:104D600070472DE9F0470D4699469246044600F1FA
:104D700024080168880604D5E06921F0100121604B
:104D800000E00120A84201DD471B00E00027A169E7
:104D90007A1902EB0900081AA0612078C00602D433
:104DA0002046AFF30080002608E0D4E901211AF87C
:104DB00006009047206A401C761C20624E45F4DBBA
:104DC0002078C0060AD52046AFF3008006E0D4E97B
:104DD000012130209047206A401C2062381EA7F134
:104DE0000107F4DC07E0D4E9012118F80500904739
:104DF000206A401C2062281EA5F10105F3DC204634
:104E0000AFF300802078000602D50220BDE8F087CD
:104E10000120FBE770472DE9FF4F0C461E464FF07F
:104E2000FF378BB0D2E90001DDF860800A908A4636
:104E3000C1F30A5505B93D46002108464FF0000070
:104E4000BAF1000F00F4400005DA00EB80004FF4E7
:104E5000400101EA50004FEA9059B9F1010F00DD1D
:104E6000B9460A9850EA4A000ED044F61050A5F20E
:104E7000FF3545432F14B8F1000F1ED07542291E8F
:104E80001EDDC9F100021CE0B8F1010F4FF0000077
:104E900001D0302103E0F24305E02154401CB04230
:104EA000FBDB30460022002121540B99C1F8088019
:104EB000C1E900200FB0BDE8F08FBD1B6D1CDEE71F
:104EC0004A4600DA694206A800F0D0FE06AB93E835
:104ED000070003AB83E8070050460A9901F007FA80
:104EE0008DE80700A0F500501F3800900398002DB2
:104EF00009DD42F21F014A46084403A903906846AF
:104F000001F091FC08E0A0F500504A461F3803A9C3
:104F10000390684601F0AFFC8DE807000004000C28
:104F200003D04FF0FF30410800E01046B8F1000F09
:104F300003D00022009215461EE0751E05D400F035
:104F40004DFC303262556D1EF9D5B346012208433F
:104F500002D000227F1C04E02078302801D10022FA
:104F60007F1E002A099786D01DE0112D07DA00F078
:104F700035FC303262556D1C50EA0102F5D1084310
:104F800002D00098C8B10EE00021681E05E0235C45
:104F9000625C63542254401E491C8142F7DBAB46DD
:104FA000A81B401E0990002004F80B000B98099ADA
:104FB000C0F80880C0E9002B7CE711264FF00008FC
:104FC00059E72DE9F04F88460446D21D22F007012B
:104FD00091B0D1E90001CDE90A0101F096FD024648
:104FE0000B98C00F01D02D2007E02068810701D564
:104FF0002B2002E0202101EAC000032A099001D001
:10500000072A05DB03464146204600F035FC0BE14C
:105010002078800601D5E06900E00620B8F1650F30
:10502000814606D0B8F1660F18D0B8F1670F70D17D
:1050300031E00020B9F1110F009001DB112301E0F4
:1050400009F101030AAA01A90CA8FFF7E4FEDDE9B2
:105050000C70002609F10105834647E001204B460C
:1050600000904FF000470AAA01A90CA8FFF7D3FE51
:10507000DDE90DB00C995D46002610B909F101007B
:105080000D18B9EB050003D4C0F1FF3609F1010595
:10509000A5EB09002BE0B9F1010F01DA4FF001098E
:1050A0000020B9F1110F0090484601DD112300E006
:1050B00003460AAA01A90CA8FFF7ADFEDDE90C70B2
:1050C0004D4600268346207800070AD4AB4500DA17
:1050D0005D4601A8012D04DD411911F8011C30299C
:1050E00007D04F4502DA17F1040F04DA0120824697
:1050F0000FE06D1EEEE7002F02DCED1B3E4403E0E7
:10510000781CA84200DD7D1CB81B00F1010A4FF09D
:1051100000472078000703D4AA4501DB4FF0FF3A8F
:105120000021B7F1004F0DF143088DF8431024D052
:1051300002202B23002F01DA7F422D230A21021E99
:10514000A0F1010000DC5FB197FBF1FC97FBF1F2ED
:1051500001FB1C7C17460CF1300C08F801CDEEE782
:10516000A8F1010003702188090501D5452100E05F
:105170006521A0F1010800F8011C09980FA9A1EB15
:105180000807FF1D00B10120411901EBEA70A16978
:105190003844081A401EA0612078C00602D4204678
:1051A000AFF30080099828B1D4E901219047206A23
:1051B000401C20622078C00622D52046AFF3008034
:1051C0001EE0002E04DBB34502DD01A8805D00E097
:1051D0003020D4E901219047206A401C2062761CCF
:1051E000AAF101005FEA000A0AD100F0EFFAC068F4
:1051F0000168405CD4E901219047206A401C20628C
:10520000281EA5F10105DCDC07E0D4E9012118F82E
:10521000010B9047206A401C2062381EA7F101074D
:10522000F3DC2046AFF30080032011B043E600001A
:1052300001694A1C02610878704700B58FB0CDE95A
:1052400001310021059105497944CDE9031011464A
:105250006846FFF7F5FB0FB000BD0000E5FFFFFF5C
:105260000A6802F8010B0A60704710B5436913B170
:10527000AFF3008001E0FFF717FC012010BD1278AA
:1052800000F124010A7000224A700122EDE7116842
:105290004FF0FF32E9E70000074B70B50D467B4445
:1052A000FFF7CBFF0446284600F04EFD10B14FF04B
:1052B000FF3070BD204670BDABCFFFFF2DE9FF4F23
:1052C000064689B00878FF2806D0491C2D2805D04D
:1052D00000244FF0000908E000200CE00124F8E76A
:1052E00009EB8903491C00EB43090878FF28F7D133
:1052F00014B1C9F100008146107800252C46AA4659
:1053000029462D2801D02B2804D1521C2D2813D03A
:10531000002082468B461078FF280FD04FF0000CFB
:105320000A21521CA5FB017804FB018105FB0C112D
:10533000C5194BEB0104EEE70120EAE7002108461E
:105340004FF00000BAF1000F02D000EB80004008DF
:10535000C0F38158B8F1010F01DD4FF0FF380C9810
:1053600009EB000755EA040009D04FF0020917F5D0
:10537000FA7F0BDA4FEACA70C6E900B012E04FEAD2
:10538000CA70C6E900B00DB0BDE8F08FB7F5FA7F7E
:105390000DDDF0487844D0E90010C6E9001040EA7D
:1053A000CA70706000F016FAC0F80090EBE7391E82
:1053B00002DAC8F1000200E0424600DA794206A8AB
:1053C00000F054FC06AB93E8070003AB83E807004A
:1053D00044F23E005BEA04010090584604D144F2D6
:1053E0001E012C465D460091210C0904014306D1A3
:1053F0000099240444EA15442D041039009104F066
:105400007F41014306D10099240244EA15642D022C
:105410000839009104F07041014306D1009924013C
:1054200044EA15742D01091F009104F04041014325
:1054300006D10099A40044EA9574AD00891E00913C
:1054400004F00041084304D100986D196441401EE6
:10545000009042466846002FCDE9014503A902DDD0
:1054600001F01DFA01E001F0F2F9BAF1000F044673
:105470000D4601D084F0004440F2FF7724F0004054
:10548000284303D0C4F30A50B84212D100F0A2F965
:10549000C0F80090C4F30A50B8420AD1AE4878442C
:1054A000D0E90010C6E9001004F000410843706024
:1054B00069E7C6E9005466E72DE9FF4F1F464FF044
:1054C000000A4FF0FF38454691B0D7E90146CDF8C4
:1054D0003CA000F07BF9C0680168405C1090B9699D
:1054E00012986D1C8847396A814688470028F6D192
:1054F000B9F1FF3F0AD0002E24F4D06411DDB9F1D8
:105500002B0F08D0B9F12D0F0BD102E0404615B09A
:105510003AE744F48064B96912986D1C8847761E96
:105520008146600504A901D52D2000E02B20002E26
:1055300001F1010B0DF130088DF810003FDDB9F1DC
:10554000690F08D0B9F1490F05D0B9F16E0F02D03B
:10555000B9F14E0F1CD13B4601A8009580E85002DE
:10556000DDE912126FF0020002F0BFF8C11CCED1CB
:105570000EE0B96912986D1C884781461398761E13
:1055800044F4007405600F98401C002E0F9016DD47
:10559000B9F1300FEDD0B9F1780F02D0B9F1580F51
:1055A0000DD10F9801280AD13B46CDE90054DDE921
:1055B0001212001F029602F096F8C11CA7D1109992
:1055C00089453ED144F0800406E01399681CAAF195
:1055D000010A44F400740860B9696D1C1298761EC3
:1055E000884730288146F0D02BE01099894505D1B5
:1055F000200603D4761E44F0800418E0484601F0EB
:105600008DFB08B3761E0DF123018B4544F4007425
:1056100008D2A9F130000BF8010B200607D5AAF13A
:10562000010003E0200602D40AF101008246A00531
:1056300002D51399681C0860B96912986D1C8847D7
:105640008146002ED1DC53E0002E51DDB9F1650F0B
:1056500002D0B9F1450F4BD1A00549D5B9696D1CF0
:105660001298761E24F440748847002E81460CDD83
:105670002B2804D0B9F12D0F07D144F48074B969F7
:1056800012986D1C8847761E8146E00501D52D21B4
:1056900000E02B2108F8011BCDF8008021E0761EE8
:1056A0000DF13901884544F400740CD2A9F13000A1
:1056B00010F0FF0088F8000002D10099884509D950
:1056C00008F1010806E0E00501D5244801E042F2B6
:1056D0000F708246B96912986D1C884781461398ED
:1056E0000560002E04DD484601F018FB0028D6D1E5
:1056F000F96912988847FF2053468BF8000088F814
:10570000000000200A900B9004AA0CA90AA8FFF739
:10571000D5FDA00502D46FF00100F8E614F0240FC7
:105720000AD0E00714D13868DDE90A12031D3B6096
:105730000068C0E900120BE00AA9684601F088FA87
:10574000E00705D13868009A011D396000680260E1
:105750002846DCE69024000086230000F1D8FFFFF5
:10576000026811441378016018467047D1600549FA
:105770007944516104497944116200211161114653
:1057800000F0BAB8EDFFFFFFED000000426842B143
:10579000016811F8013B23B1521EC0E900121846FE
:1057A00070470121C160881E704742685AB1C368C2
:1057B000016843B983688B4205D0491E521CC0E979
:1057C0000012002070474FF0FF30704700487047CC
:1057D00070040020004870475004002030B5B0F13C
:1057E0000A024FEA900E71F100034EEA817EB0EB9F
:1057F0000E0061EB91014FEA101E4EEA017E10EBA4
:105800000E0041EB11114FEA102E4EEA016E10EB23
:105810000E0041EB11214FEA104E4EEA014E10EB03
:105820000E0041EB1141401841F100014FEAD00058
:1058300040EA41704FEAD10110EB80054FEA810444
:1058400044EA907444EB01046D1944EB0404521BC8
:10585000A3414FF0000348BF0A3200D530BD401CC1
:1058600041F1000130BD10B5044600F09BFA00681C
:10587000005D00F0010010BD2DE9F0411F46044617
:1058800003260168072A01F4006004DB08B116A5AD
:1058900005E016A503E008B115A500E015A521F067
:1058A00010002060A069C01EA0610FB1401EA06161
:1058B0002046AFF300804FB1D4E90121384690472C
:1058C000206A401C2062C01C206206E0206AFAE7C1
:1058D000D4E9012115F8010B9047761EF8D2204635
:1058E000AFF30080BDE8F0814E414E006E616E0066
:1058F000494E4600696E66002DE9F34F4FF0000AED
:105900000C4656468DB001200C9001F10C000B9016
:1059100062690B9801219047051E2DD0252D2CD0B2
:10592000216A8847C0B162690B9801219047216ABA
:1059300088470028F7D16269411E0B98904700E024
:10594000761CA1690D988847216A88470028F7D1FD
:10595000E1690D988847DBE7A1690D988847A8425F
:10596000074601D1761CD3E7E1690D9888477F1C73
:1059700002D1BAF1000F6FD06BE162690B9800277A
:105980003D46394690472A2804D162690B98012187
:1059900090470125DFF8D08262690B98012190477A
:1059A000A0F130010A290AD24745E5DC07EB87015F
:1059B00000EB4107303FDFD445F01005ECE7E90686
:1059C00001D46FF000476C280AD04C2814D0682806
:1059D00015D06A280DD074281CD07A281AD01DE062
:1059E00062690B98012190476C2802D045F00405AC
:1059F00014E045F002050DE045F020050AE062697B
:105A00000B9801219047682802D045F0080505E071
:105A100045F4006562690B9801219047C4E901577C
:105A200065283DD019DC58287AD00CDC452837D0C1
:105A300004DC252826D041289ED131E046282FD0ED
:105A4000472899D12CE05B2877D0612828D063289B
:105A50007CD0642823D15AE0F6E06F2848D008DCD7
:105A600066281DD067281BD0692821D06E2816D142
:105A700027E0702845D0732868D0752847D078284B
:105A80000DD14DE0A1690D988847252805463FF4C2
:105A900069AFE1690D9888476D1C3FF46AAFD8E0A3
:105AA0000D9923466A466FF0010001F01AFEC5E029
:105AB00045F0400023464FF000026060A80736D44E
:105AC0003EE0E8077FF447AF2068011D21600068D1
:105AD000290501D506701BE7290701D5068017E7C0
